{
  "contractName": "Metadata",
  "abi": [
    {
      "constant": true,
      "inputs": [
        {
          "name": "_tokenId",
          "type": "uint256"
        }
      ],
      "name": "tokenURI",
      "outputs": [
        {
          "name": "_infoUrl",
          "type": "string"
        }
      ],
      "payable": false,
      "stateMutability": "pure",
      "type": "function"
    },
    {
      "constant": true,
      "inputs": [
        {
          "name": "x",
          "type": "uint256"
        }
      ],
      "name": "toBytes",
      "outputs": [
        {
          "name": "b",
          "type": "bytes"
        }
      ],
      "payable": false,
      "stateMutability": "pure",
      "type": "function"
    }
  ],
  "bytecode": "0x608060405234801561001057600080fd5b50610398806100206000396000f3fe608060405234801561001057600080fd5b50600436106100365760003560e01c8063775a8f5e1461003b578063c87b56dd146100cd575b600080fd5b6100586004803603602081101561005157600080fd5b50356100ea565b6040805160208082528351818301528351919283929083019185019080838360005b8381101561009257818101518382015260200161007a565b50505050905090810190601f1680156100bf5780820380516001836020036101000a031916815260200191505b509250505060405180910390f35b610058600480360360208110156100e357600080fd5b5035610114565b60408051602080825281830190925260609160208201818038833950505060208101929092525090565b6060806040518060600160405280602f815260200161033e602f91399050606061013d8461016a565b905061016061014b8261024c565b6101548461024c565b9063ffffffff61027116565b925050505b919050565b60608161019257506040805180820190915260018152600160fc1b6003026020820152610165565b8160005b81156101aa57600101600a82049150610196565b6060816040519080825280601f01601f1916602001820160405280156101d7576020820181803883390190505b50905060001982015b8515610243576030600a8706016101f6816100ea565b601f8151811061020257fe5b602001015160f81c60f81b8383806001900394508151811061022057fe5b60200101906001600160f81b031916908160001a905350600a87049650506101e0565b50949350505050565b610254610323565b506040805180820190915281518152602082810190820152919050565b60608082600001518460000151016040519080825280601f01601f1916602001820160405280156102a9576020820181803883390190505b50905060006020820190506102c781866020015187600001516102e5565b8451602085015185516102dd92840191906102e5565b509392505050565b5b60208110610305578151835260209283019290910190601f19016102e6565b905182516020929092036101000a6000190180199091169116179052565b60405180604001604052806000815260200160008152509056fe68747470733a2f2f7175616c696669636174696f6e636f696e2e6e65746c6966792e636f6d2f6d657461646174612fa165627a7a723058200923aa131ce36b6c3b27f41b0e6b706be064b85e18b8f7783ae8313659f267090029",
  "source": "pragma solidity ^0.5.0;\n/**\n* Metadata contract is upgradeable and returns metadata about token\n*/\n\nimport \"./helpers/strings.sol\";\n\ncontract Metadata {\n\n    using strings for *;\n\n    function tokenURI(uint _tokenId) public pure returns (string memory _infoUrl) {\n        string memory base = \"https://qualificationcoin.netlify.com/metadata/\";\n        string memory id = uint2str(_tokenId);\n        return base.toSlice().concat(id.toSlice());\n    }\n\n    function uint2str(uint i) internal pure returns (string memory) {\n    if (i == 0) return \"0\";\n    uint j = i;\n    uint length;\n    while (j != 0) {\n        length++;\n        j /= 10;\n    }\n    bytes memory bstr = new bytes(length);\n    uint k = length - 1;\n    while (i != 0) {\n        uint _uint = 48 + i % 10;\n        bstr[k--] = toBytes(_uint)[31];\n        i /= 10;\n    }\n    return string(bstr);\n}\nfunction toBytes(uint256 x) public pure returns (bytes memory b) {\n    b = new bytes(32);\n    assembly { mstore(add(b, 32), x) }\n}\n}",
  "sourcePath": "/home/vitalpointai/projects/ChallengeCoin/src/contracts/Metadata.sol",
  "compiler": {
    "name": "solc",
    "version": "0.5.7+commit.6da8b019.Emscripten.clang"
  },
  "schemaVersion": "3.0.19",
  "updatedAt": "2019-12-15T23:17:32.762Z",
  "networkType": "ethereum",
  "devdoc": {
    "methods": {}
  },
  "userdoc": {
    "methods": {}
  }
}