{
  "contractName": "MyCoin",
  "abi": [
    {
      "constant": true,
      "inputs": [],
      "name": "name",
      "outputs": [
        {
          "name": "",
          "type": "string"
        }
      ],
      "payable": false,
      "stateMutability": "view",
      "type": "function"
    },
    {
      "constant": false,
      "inputs": [
        {
          "name": "spender",
          "type": "address"
        },
        {
          "name": "amount",
          "type": "uint256"
        }
      ],
      "name": "approve",
      "outputs": [
        {
          "name": "",
          "type": "bool"
        }
      ],
      "payable": false,
      "stateMutability": "nonpayable",
      "type": "function"
    },
    {
      "constant": true,
      "inputs": [],
      "name": "gateway",
      "outputs": [
        {
          "name": "",
          "type": "address"
        }
      ],
      "payable": false,
      "stateMutability": "view",
      "type": "function"
    },
    {
      "constant": true,
      "inputs": [],
      "name": "totalSupply",
      "outputs": [
        {
          "name": "",
          "type": "uint256"
        }
      ],
      "payable": false,
      "stateMutability": "view",
      "type": "function"
    },
    {
      "constant": false,
      "inputs": [
        {
          "name": "sender",
          "type": "address"
        },
        {
          "name": "recipient",
          "type": "address"
        },
        {
          "name": "amount",
          "type": "uint256"
        }
      ],
      "name": "transferFrom",
      "outputs": [
        {
          "name": "",
          "type": "bool"
        }
      ],
      "payable": false,
      "stateMutability": "nonpayable",
      "type": "function"
    },
    {
      "constant": true,
      "inputs": [],
      "name": "decimals",
      "outputs": [
        {
          "name": "",
          "type": "uint8"
        }
      ],
      "payable": false,
      "stateMutability": "view",
      "type": "function"
    },
    {
      "constant": false,
      "inputs": [
        {
          "name": "spender",
          "type": "address"
        },
        {
          "name": "addedValue",
          "type": "uint256"
        }
      ],
      "name": "increaseAllowance",
      "outputs": [
        {
          "name": "",
          "type": "bool"
        }
      ],
      "payable": false,
      "stateMutability": "nonpayable",
      "type": "function"
    },
    {
      "constant": true,
      "inputs": [
        {
          "name": "account",
          "type": "address"
        }
      ],
      "name": "balanceOf",
      "outputs": [
        {
          "name": "",
          "type": "uint256"
        }
      ],
      "payable": false,
      "stateMutability": "view",
      "type": "function"
    },
    {
      "constant": true,
      "inputs": [],
      "name": "symbol",
      "outputs": [
        {
          "name": "",
          "type": "string"
        }
      ],
      "payable": false,
      "stateMutability": "view",
      "type": "function"
    },
    {
      "constant": false,
      "inputs": [
        {
          "name": "spender",
          "type": "address"
        },
        {
          "name": "subtractedValue",
          "type": "uint256"
        }
      ],
      "name": "decreaseAllowance",
      "outputs": [
        {
          "name": "",
          "type": "bool"
        }
      ],
      "payable": false,
      "stateMutability": "nonpayable",
      "type": "function"
    },
    {
      "constant": false,
      "inputs": [
        {
          "name": "recipient",
          "type": "address"
        },
        {
          "name": "amount",
          "type": "uint256"
        }
      ],
      "name": "transfer",
      "outputs": [
        {
          "name": "",
          "type": "bool"
        }
      ],
      "payable": false,
      "stateMutability": "nonpayable",
      "type": "function"
    },
    {
      "constant": true,
      "inputs": [
        {
          "name": "owner",
          "type": "address"
        },
        {
          "name": "spender",
          "type": "address"
        }
      ],
      "name": "allowance",
      "outputs": [
        {
          "name": "",
          "type": "uint256"
        }
      ],
      "payable": false,
      "stateMutability": "view",
      "type": "function"
    },
    {
      "inputs": [
        {
          "name": "_gateway",
          "type": "address"
        }
      ],
      "payable": false,
      "stateMutability": "nonpayable",
      "type": "constructor"
    },
    {
      "anonymous": false,
      "inputs": [
        {
          "indexed": true,
          "name": "from",
          "type": "address"
        },
        {
          "indexed": true,
          "name": "to",
          "type": "address"
        },
        {
          "indexed": false,
          "name": "value",
          "type": "uint256"
        }
      ],
      "name": "Transfer",
      "type": "event"
    },
    {
      "anonymous": false,
      "inputs": [
        {
          "indexed": true,
          "name": "owner",
          "type": "address"
        },
        {
          "indexed": true,
          "name": "spender",
          "type": "address"
        },
        {
          "indexed": false,
          "name": "value",
          "type": "uint256"
        }
      ],
      "name": "Approval",
      "type": "event"
    },
    {
      "constant": false,
      "inputs": [
        {
          "name": "_amount",
          "type": "uint256"
        }
      ],
      "name": "mintToGateway",
      "outputs": [],
      "payable": false,
      "stateMutability": "nonpayable",
      "type": "function"
    }
  ],
  "bytecode": "0x60c0604052600660808190527f4d79436f696e000000000000000000000000000000000000000000000000000060a090815261003e91600491906100e3565b506040805180820190915260038082527f4d434300000000000000000000000000000000000000000000000000000000006020909201918252610083916005916100e3565b506006805460ff1916601217905534801561009d57600080fd5b50604051602080610d7a833981018060405260208110156100bd57600080fd5b5051600380546001600160a01b0319166001600160a01b0390921691909117905561017e565b828054600181600116156101000203166002900490600052602060002090601f016020900481019282601f1061012457805160ff1916838001178555610151565b82800160010185558215610151579182015b82811115610151578251825591602001919060010190610136565b5061015d929150610161565b5090565b61017b91905b8082111561015d5760008155600101610167565b90565b610bed8061018d6000396000f3fe608060405234801561001057600080fd5b50600436106100cf5760003560e01c8063395093511161008c57806395d89b411161006657806395d89b4114610294578063a457c2d71461029c578063a9059cbb146102c8578063dd62ed3e146102f4576100cf565b80633950935114610223578063544297f51461024f57806370a082311461026e576100cf565b806306fdde03146100d4578063095ea7b314610151578063116191b61461019157806318160ddd146101b557806323b872dd146101cf578063313ce56714610205575b600080fd5b6100dc610322565b6040805160208082528351818301528351919283929083019185019080838360005b838110156101165781810151838201526020016100fe565b50505050905090810190601f1680156101435780820380516001836020036101000a031916815260200191505b509250505060405180910390f35b61017d6004803603604081101561016757600080fd5b506001600160a01b0381351690602001356103b0565b604080519115158252519081900360200190f35b6101996103cd565b604080516001600160a01b039092168252519081900360200190f35b6101bd6103dc565b60408051918252519081900360200190f35b61017d600480360360608110156101e557600080fd5b506001600160a01b038135811691602081013590911690604001356103e2565b61020d61046f565b6040805160ff9092168252519081900360200190f35b61017d6004803603604081101561023957600080fd5b506001600160a01b038135169060200135610478565b61026c6004803603602081101561026557600080fd5b50356104cc565b005b6101bd6004803603602081101561028457600080fd5b50356001600160a01b0316610531565b6100dc61054c565b61017d600480360360408110156102b257600080fd5b506001600160a01b0381351690602001356105a7565b61017d600480360360408110156102de57600080fd5b506001600160a01b038135169060200135610615565b6101bd6004803603604081101561030a57600080fd5b506001600160a01b0381358116916020013516610629565b6004805460408051602060026001851615610100026000190190941693909304601f810184900484028201840190925281815292918301828280156103a85780601f1061037d576101008083540402835291602001916103a8565b820191906000526020600020905b81548152906001019060200180831161038b57829003601f168201915b505050505081565b60006103c46103bd610654565b8484610658565b50600192915050565b6003546001600160a01b031681565b60025490565b60006103ef84848461074a565b610465846103fb610654565b61046085604051806060016040528060288152602001610b2c602891396001600160a01b038a16600090815260016020526040812090610439610654565b6001600160a01b03168152602081019190915260400160002054919063ffffffff6108ac16565b610658565b5060019392505050565b60065460ff1681565b60006103c4610485610654565b846104608560016000610496610654565b6001600160a01b03908116825260208083019390935260409182016000908120918c16815292529020549063ffffffff61094616565b6003546001600160a01b0316331461051857604051600160e51b62461bcd028152600401808060200182810382526023815260200180610a9e6023913960400191505060405180910390fd5b60035461052e906001600160a01b0316826109aa565b50565b6001600160a01b031660009081526020819052604090205490565b6005805460408051602060026001851615610100026000190190941693909304601f810184900484028201840190925281815292918301828280156103a85780601f1061037d576101008083540402835291602001916103a8565b60006103c46105b4610654565b8461046085604051806060016040528060258152602001610b9d60259139600160006105de610654565b6001600160a01b03908116825260208083019390935260409182016000908120918d1681529252902054919063ffffffff6108ac16565b60006103c4610622610654565b848461074a565b6001600160a01b03918216600090815260016020908152604080832093909416825291909152205490565b3390565b6001600160a01b0383166106a057604051600160e51b62461bcd028152600401808060200182810382526024815260200180610b796024913960400191505060405180910390fd5b6001600160a01b0382166106e857604051600160e51b62461bcd028152600401808060200182810382526022815260200180610ae46022913960400191505060405180910390fd5b6001600160a01b03808416600081815260016020908152604080832094871680845294825291829020859055815185815291517f8c5be1e5ebec7d5bd14f71427d1e84f3dd0314c0f7b2291e5b200ac8c7c3b9259281900390910190a3505050565b6001600160a01b03831661079257604051600160e51b62461bcd028152600401808060200182810382526025815260200180610b546025913960400191505060405180910390fd5b6001600160a01b0382166107da57604051600160e51b62461bcd028152600401808060200182810382526023815260200180610ac16023913960400191505060405180910390fd5b61081d81604051806060016040528060268152602001610b06602691396001600160a01b038616600090815260208190526040902054919063ffffffff6108ac16565b6001600160a01b038085166000908152602081905260408082209390935590841681522054610852908263ffffffff61094616565b6001600160a01b038084166000818152602081815260409182902094909455805185815290519193928716927fddf252ad1be2c89b69c2b068fc378daa952ba7f163c4a11628f55a4df523b3ef92918290030190a3505050565b6000818484111561093e57604051600160e51b62461bcd0281526004018080602001828103825283818151815260200191508051906020019080838360005b838110156109035781810151838201526020016108eb565b50505050905090810190601f1680156109305780820380516001836020036101000a031916815260200191505b509250505060405180910390fd5b505050900390565b6000828201838110156109a35760408051600160e51b62461bcd02815260206004820152601b60248201527f536166654d6174683a206164646974696f6e206f766572666c6f770000000000604482015290519081900360640190fd5b9392505050565b6001600160a01b038216610a085760408051600160e51b62461bcd02815260206004820152601f60248201527f45524332303a206d696e7420746f20746865207a65726f206164647265737300604482015290519081900360640190fd5b600254610a1b908263ffffffff61094616565b6002556001600160a01b038216600090815260208190526040902054610a47908263ffffffff61094616565b6001600160a01b0383166000818152602081815260408083209490945583518581529351929391927fddf252ad1be2c89b69c2b068fc378daa952ba7f163c4a11628f55a4df523b3ef9281900390910190a3505056fe6f6e6c7920746865206761746577617920697320616c6c6f77656420746f206d696e7445524332303a207472616e7366657220746f20746865207a65726f206164647265737345524332303a20617070726f766520746f20746865207a65726f206164647265737345524332303a207472616e7366657220616d6f756e7420657863656564732062616c616e636545524332303a207472616e7366657220616d6f756e74206578636565647320616c6c6f77616e636545524332303a207472616e736665722066726f6d20746865207a65726f206164647265737345524332303a20617070726f76652066726f6d20746865207a65726f206164647265737345524332303a2064656372656173656420616c6c6f77616e63652062656c6f77207a65726fa165627a7a723058208827d9c96ee2996189468a2b704c50e5147bbe738ca4e4d30bef5281b98e7c1d0029",
  "source": "pragma solidity ^0.5.0;\n\nimport \"@openzeppelin/contracts/token/ERC20/ERC20.sol\";\n\ncontract MyCoin is ERC20 {\n    // Transfer Gateway contract address\n    address public gateway;\n\n    string public name = \"MyCoin\";\n    string public symbol = \"MCC\";\n    uint8 public decimals = 18;\n    \n    constructor (address _gateway) public {\n        gateway = _gateway;\n    }\n\n    // Used by the DAppChain Gateway to mint tokens that have been deposited to the Ethereum Gateway\n    function mintToGateway(uint256 _amount) public {\n        require(msg.sender == gateway, \"only the gateway is allowed to mint\");\n        _mint(gateway, _amount);\n    }\n}\n",
  "sourcePath": "/home/vitalpointai/projects/ChallengeCoin/src/contracts/MyCoin.sol",
  "compiler": {
    "name": "solc",
    "version": "0.5.7+commit.6da8b019.Emscripten.clang"
  },
  "schemaVersion": "3.0.19",
  "updatedAt": "2019-12-15T23:17:32.768Z",
  "networkType": "ethereum",
  "devdoc": {
    "methods": {
      "allowance(address,address)": {
        "details": "See {IERC20-allowance}."
      },
      "approve(address,uint256)": {
        "details": "See {IERC20-approve}.     * Requirements:     * - `spender` cannot be the zero address."
      },
      "balanceOf(address)": {
        "details": "See {IERC20-balanceOf}."
      },
      "decreaseAllowance(address,uint256)": {
        "details": "Atomically decreases the allowance granted to `spender` by the caller.     * This is an alternative to {approve} that can be used as a mitigation for problems described in {IERC20-approve}.     * Emits an {Approval} event indicating the updated allowance.     * Requirements:     * - `spender` cannot be the zero address. - `spender` must have allowance for the caller of at least `subtractedValue`."
      },
      "increaseAllowance(address,uint256)": {
        "details": "Atomically increases the allowance granted to `spender` by the caller.     * This is an alternative to {approve} that can be used as a mitigation for problems described in {IERC20-approve}.     * Emits an {Approval} event indicating the updated allowance.     * Requirements:     * - `spender` cannot be the zero address."
      },
      "totalSupply()": {
        "details": "See {IERC20-totalSupply}."
      },
      "transfer(address,uint256)": {
        "details": "See {IERC20-transfer}.     * Requirements:     * - `recipient` cannot be the zero address. - the caller must have a balance of at least `amount`."
      },
      "transferFrom(address,address,uint256)": {
        "details": "See {IERC20-transferFrom}.     * Emits an {Approval} event indicating the updated allowance. This is not required by the EIP. See the note at the beginning of {ERC20};     * Requirements: - `sender` and `recipient` cannot be the zero address. - `sender` must have a balance of at least `amount`. - the caller must have allowance for `sender`'s tokens of at least `amount`."
      }
    }
  },
  "userdoc": {
    "methods": {}
  }
}