{
  "contractName": "MyRinkebyCoin",
  "abi": [
    {
      "constant": true,
      "inputs": [],
      "name": "name",
      "outputs": [
        {
          "name": "",
          "type": "string"
        }
      ],
      "payable": false,
      "stateMutability": "view",
      "type": "function"
    },
    {
      "constant": false,
      "inputs": [
        {
          "name": "spender",
          "type": "address"
        },
        {
          "name": "amount",
          "type": "uint256"
        }
      ],
      "name": "approve",
      "outputs": [
        {
          "name": "",
          "type": "bool"
        }
      ],
      "payable": false,
      "stateMutability": "nonpayable",
      "type": "function"
    },
    {
      "constant": true,
      "inputs": [],
      "name": "totalSupply",
      "outputs": [
        {
          "name": "",
          "type": "uint256"
        }
      ],
      "payable": false,
      "stateMutability": "view",
      "type": "function"
    },
    {
      "constant": false,
      "inputs": [
        {
          "name": "sender",
          "type": "address"
        },
        {
          "name": "recipient",
          "type": "address"
        },
        {
          "name": "amount",
          "type": "uint256"
        }
      ],
      "name": "transferFrom",
      "outputs": [
        {
          "name": "",
          "type": "bool"
        }
      ],
      "payable": false,
      "stateMutability": "nonpayable",
      "type": "function"
    },
    {
      "constant": true,
      "inputs": [],
      "name": "INITIAL_SUPPLY",
      "outputs": [
        {
          "name": "",
          "type": "uint256"
        }
      ],
      "payable": false,
      "stateMutability": "view",
      "type": "function"
    },
    {
      "constant": true,
      "inputs": [],
      "name": "decimals",
      "outputs": [
        {
          "name": "",
          "type": "uint8"
        }
      ],
      "payable": false,
      "stateMutability": "view",
      "type": "function"
    },
    {
      "constant": false,
      "inputs": [
        {
          "name": "spender",
          "type": "address"
        },
        {
          "name": "addedValue",
          "type": "uint256"
        }
      ],
      "name": "increaseAllowance",
      "outputs": [
        {
          "name": "",
          "type": "bool"
        }
      ],
      "payable": false,
      "stateMutability": "nonpayable",
      "type": "function"
    },
    {
      "constant": true,
      "inputs": [
        {
          "name": "account",
          "type": "address"
        }
      ],
      "name": "balanceOf",
      "outputs": [
        {
          "name": "",
          "type": "uint256"
        }
      ],
      "payable": false,
      "stateMutability": "view",
      "type": "function"
    },
    {
      "constant": true,
      "inputs": [],
      "name": "symbol",
      "outputs": [
        {
          "name": "",
          "type": "string"
        }
      ],
      "payable": false,
      "stateMutability": "view",
      "type": "function"
    },
    {
      "constant": false,
      "inputs": [
        {
          "name": "spender",
          "type": "address"
        },
        {
          "name": "subtractedValue",
          "type": "uint256"
        }
      ],
      "name": "decreaseAllowance",
      "outputs": [
        {
          "name": "",
          "type": "bool"
        }
      ],
      "payable": false,
      "stateMutability": "nonpayable",
      "type": "function"
    },
    {
      "constant": false,
      "inputs": [
        {
          "name": "recipient",
          "type": "address"
        },
        {
          "name": "amount",
          "type": "uint256"
        }
      ],
      "name": "transfer",
      "outputs": [
        {
          "name": "",
          "type": "bool"
        }
      ],
      "payable": false,
      "stateMutability": "nonpayable",
      "type": "function"
    },
    {
      "constant": true,
      "inputs": [
        {
          "name": "owner",
          "type": "address"
        },
        {
          "name": "spender",
          "type": "address"
        }
      ],
      "name": "allowance",
      "outputs": [
        {
          "name": "",
          "type": "uint256"
        }
      ],
      "payable": false,
      "stateMutability": "view",
      "type": "function"
    },
    {
      "inputs": [],
      "payable": false,
      "stateMutability": "nonpayable",
      "type": "constructor"
    },
    {
      "anonymous": false,
      "inputs": [
        {
          "indexed": true,
          "name": "from",
          "type": "address"
        },
        {
          "indexed": true,
          "name": "to",
          "type": "address"
        },
        {
          "indexed": false,
          "name": "value",
          "type": "uint256"
        }
      ],
      "name": "Transfer",
      "type": "event"
    },
    {
      "anonymous": false,
      "inputs": [
        {
          "indexed": true,
          "name": "owner",
          "type": "address"
        },
        {
          "indexed": true,
          "name": "spender",
          "type": "address"
        },
        {
          "indexed": false,
          "name": "value",
          "type": "uint256"
        }
      ],
      "name": "Approval",
      "type": "event"
    }
  ],
  "bytecode": "0x60c0604052600d60808190527f4d7952696e6b656279436f696e0000000000000000000000000000000000000060a090815261003e9160039190610253565b506040805180820190915260038082527f4d52430000000000000000000000000000000000000000000000000000000000602090920191825261008391600491610253565b506005805460ff1916601217905534801561009d57600080fd5b5060055460ff16600a0a633b9aca00026100be33826100c4602090811b901c565b506102ee565b6001600160a01b03821661013957604080517f08c379a000000000000000000000000000000000000000000000000000000000815260206004820152601f60248201527f45524332303a206d696e7420746f20746865207a65726f206164647265737300604482015290519081900360640190fd5b610152816002546101d860201b6108841790919060201c565b6002556001600160a01b038216600090815260208181526040909120546101829183906108846101d8821b17901c565b6001600160a01b0383166000818152602081815260408083209490945583518581529351929391927fddf252ad1be2c89b69c2b068fc378daa952ba7f163c4a11628f55a4df523b3ef9281900390910190a35050565b60008282018381101561024c57604080517f08c379a000000000000000000000000000000000000000000000000000000000815260206004820152601b60248201527f536166654d6174683a206164646974696f6e206f766572666c6f770000000000604482015290519081900360640190fd5b9392505050565b828054600181600116156101000203166002900490600052602060002090601f016020900481019282601f1061029457805160ff19168380011785556102c1565b828001600101855582156102c1579182015b828111156102c15782518255916020019190600101906102a6565b506102cd9291506102d1565b5090565b6102eb91905b808211156102cd57600081556001016102d7565b90565b610a15806102fd6000396000f3fe608060405234801561001057600080fd5b50600436106100b45760003560e01c8063395093511161007157806339509351146101ec57806370a082311461021857806395d89b411461023e578063a457c2d714610246578063a9059cbb14610272578063dd62ed3e1461029e576100b4565b806306fdde03146100b9578063095ea7b31461013657806318160ddd1461017657806323b872dd146101905780632ff2e9dc146101c6578063313ce567146101ce575b600080fd5b6100c16102cc565b6040805160208082528351818301528351919283929083019185019080838360005b838110156100fb5781810151838201526020016100e3565b50505050905090810190601f1680156101285780820380516001836020036101000a031916815260200191505b509250505060405180910390f35b6101626004803603604081101561014c57600080fd5b506001600160a01b03813516906020013561035a565b604080519115158252519081900360200190f35b61017e610377565b60408051918252519081900360200190f35b610162600480360360608110156101a657600080fd5b506001600160a01b0381358116916020810135909116906040013561037d565b61017e61040a565b6101d6610412565b6040805160ff9092168252519081900360200190f35b6101626004803603604081101561020257600080fd5b506001600160a01b03813516906020013561041b565b61017e6004803603602081101561022e57600080fd5b50356001600160a01b031661046f565b6100c161048a565b6101626004803603604081101561025c57600080fd5b506001600160a01b0381351690602001356104e5565b6101626004803603604081101561028857600080fd5b506001600160a01b038135169060200135610553565b61017e600480360360408110156102b457600080fd5b506001600160a01b0381358116916020013516610567565b6003805460408051602060026001851615610100026000190190941693909304601f810184900484028201840190925281815292918301828280156103525780601f1061032757610100808354040283529160200191610352565b820191906000526020600020905b81548152906001019060200180831161033557829003601f168201915b505050505081565b600061036e610367610592565b8484610596565b50600192915050565b60025490565b600061038a848484610688565b61040084610396610592565b6103fb85604051806060016040528060288152602001610954602891396001600160a01b038a166000908152600160205260408120906103d4610592565b6001600160a01b03168152602081019190915260400160002054919063ffffffff6107ea16565b610596565b5060019392505050565b633b9aca0081565b60055460ff1681565b600061036e610428610592565b846103fb8560016000610439610592565b6001600160a01b03908116825260208083019390935260409182016000908120918c16815292529020549063ffffffff61088416565b6001600160a01b031660009081526020819052604090205490565b6004805460408051602060026001851615610100026000190190941693909304601f810184900484028201840190925281815292918301828280156103525780601f1061032757610100808354040283529160200191610352565b600061036e6104f2610592565b846103fb856040518060600160405280602581526020016109c5602591396001600061051c610592565b6001600160a01b03908116825260208083019390935260409182016000908120918d1681529252902054919063ffffffff6107ea16565b600061036e610560610592565b8484610688565b6001600160a01b03918216600090815260016020908152604080832093909416825291909152205490565b3390565b6001600160a01b0383166105de57604051600160e51b62461bcd0281526004018080602001828103825260248152602001806109a16024913960400191505060405180910390fd5b6001600160a01b03821661062657604051600160e51b62461bcd02815260040180806020018281038252602281526020018061090c6022913960400191505060405180910390fd5b6001600160a01b03808416600081815260016020908152604080832094871680845294825291829020859055815185815291517f8c5be1e5ebec7d5bd14f71427d1e84f3dd0314c0f7b2291e5b200ac8c7c3b9259281900390910190a3505050565b6001600160a01b0383166106d057604051600160e51b62461bcd02815260040180806020018281038252602581526020018061097c6025913960400191505060405180910390fd5b6001600160a01b03821661071857604051600160e51b62461bcd0281526004018080602001828103825260238152602001806108e96023913960400191505060405180910390fd5b61075b8160405180606001604052806026815260200161092e602691396001600160a01b038616600090815260208190526040902054919063ffffffff6107ea16565b6001600160a01b038085166000908152602081905260408082209390935590841681522054610790908263ffffffff61088416565b6001600160a01b038084166000818152602081815260409182902094909455805185815290519193928716927fddf252ad1be2c89b69c2b068fc378daa952ba7f163c4a11628f55a4df523b3ef92918290030190a3505050565b6000818484111561087c57604051600160e51b62461bcd0281526004018080602001828103825283818151815260200191508051906020019080838360005b83811015610841578181015183820152602001610829565b50505050905090810190601f16801561086e5780820380516001836020036101000a031916815260200191505b509250505060405180910390fd5b505050900390565b6000828201838110156108e15760408051600160e51b62461bcd02815260206004820152601b60248201527f536166654d6174683a206164646974696f6e206f766572666c6f770000000000604482015290519081900360640190fd5b939250505056fe45524332303a207472616e7366657220746f20746865207a65726f206164647265737345524332303a20617070726f766520746f20746865207a65726f206164647265737345524332303a207472616e7366657220616d6f756e7420657863656564732062616c616e636545524332303a207472616e7366657220616d6f756e74206578636565647320616c6c6f77616e636545524332303a207472616e736665722066726f6d20746865207a65726f206164647265737345524332303a20617070726f76652066726f6d20746865207a65726f206164647265737345524332303a2064656372656173656420616c6c6f77616e63652062656c6f77207a65726fa165627a7a72305820d1e4b33f41af7ad726a20dc8225fef817c3b6c70db05326593cf1cca7bf3a4d00029",
  "source": "pragma solidity ^0.5.0;\n\nimport \"@openzeppelin/contracts/token/ERC20/ERC20.sol\";\n\ncontract MyRinkebyCoin is ERC20 {\n    string public name = \"MyRinkebyCoin\";\n    string public symbol = \"MRC\";\n    uint8 public decimals = 18;\n\n    // one billion in initial supply\n    uint256 public constant INITIAL_SUPPLY = 1000000000;\n\n    constructor () public {\n        uint256 totalSupply = INITIAL_SUPPLY * (10 ** uint256(decimals));\n        _mint(msg.sender, totalSupply);\n    }\n}\n",
  "sourcePath": "/home/vitalpointai/projects/ChallengeCoin/src/contracts/MyRinkebyCoin.sol",
  "compiler": {
    "name": "solc",
    "version": "0.5.7+commit.6da8b019.Emscripten.clang"
  },
  "schemaVersion": "3.0.19",
  "updatedAt": "2019-12-15T21:47:01.687Z",
  "networkType": "ethereum",
  "devdoc": {
    "methods": {
      "allowance(address,address)": {
        "details": "See {IERC20-allowance}."
      },
      "approve(address,uint256)": {
        "details": "See {IERC20-approve}.     * Requirements:     * - `spender` cannot be the zero address."
      },
      "balanceOf(address)": {
        "details": "See {IERC20-balanceOf}."
      },
      "decreaseAllowance(address,uint256)": {
        "details": "Atomically decreases the allowance granted to `spender` by the caller.     * This is an alternative to {approve} that can be used as a mitigation for problems described in {IERC20-approve}.     * Emits an {Approval} event indicating the updated allowance.     * Requirements:     * - `spender` cannot be the zero address. - `spender` must have allowance for the caller of at least `subtractedValue`."
      },
      "increaseAllowance(address,uint256)": {
        "details": "Atomically increases the allowance granted to `spender` by the caller.     * This is an alternative to {approve} that can be used as a mitigation for problems described in {IERC20-approve}.     * Emits an {Approval} event indicating the updated allowance.     * Requirements:     * - `spender` cannot be the zero address."
      },
      "totalSupply()": {
        "details": "See {IERC20-totalSupply}."
      },
      "transfer(address,uint256)": {
        "details": "See {IERC20-transfer}.     * Requirements:     * - `recipient` cannot be the zero address. - the caller must have a balance of at least `amount`."
      },
      "transferFrom(address,address,uint256)": {
        "details": "See {IERC20-transferFrom}.     * Emits an {Approval} event indicating the updated allowance. This is not required by the EIP. See the note at the beginning of {ERC20};     * Requirements: - `sender` and `recipient` cannot be the zero address. - `sender` must have a balance of at least `amount`. - the caller must have allowance for `sender`'s tokens of at least `amount`."
      }
    }
  },
  "userdoc": {
    "methods": {}
  }
}