{
  "contractName": "MyRinkebyToken",
  "abi": [
    {
      "constant": true,
      "inputs": [
        {
          "name": "interfaceId",
          "type": "bytes4"
        }
      ],
      "name": "supportsInterface",
      "outputs": [
        {
          "name": "",
          "type": "bool"
        }
      ],
      "payable": false,
      "stateMutability": "view",
      "type": "function"
    },
    {
      "constant": true,
      "inputs": [],
      "name": "name",
      "outputs": [
        {
          "name": "",
          "type": "string"
        }
      ],
      "payable": false,
      "stateMutability": "view",
      "type": "function"
    },
    {
      "constant": true,
      "inputs": [
        {
          "name": "tokenId",
          "type": "uint256"
        }
      ],
      "name": "getApproved",
      "outputs": [
        {
          "name": "",
          "type": "address"
        }
      ],
      "payable": false,
      "stateMutability": "view",
      "type": "function"
    },
    {
      "constant": false,
      "inputs": [
        {
          "name": "to",
          "type": "address"
        },
        {
          "name": "tokenId",
          "type": "uint256"
        }
      ],
      "name": "approve",
      "outputs": [],
      "payable": false,
      "stateMutability": "nonpayable",
      "type": "function"
    },
    {
      "constant": true,
      "inputs": [],
      "name": "totalSupply",
      "outputs": [
        {
          "name": "",
          "type": "uint256"
        }
      ],
      "payable": false,
      "stateMutability": "view",
      "type": "function"
    },
    {
      "constant": false,
      "inputs": [
        {
          "name": "from",
          "type": "address"
        },
        {
          "name": "to",
          "type": "address"
        },
        {
          "name": "tokenId",
          "type": "uint256"
        }
      ],
      "name": "transferFrom",
      "outputs": [],
      "payable": false,
      "stateMutability": "nonpayable",
      "type": "function"
    },
    {
      "constant": true,
      "inputs": [
        {
          "name": "owner",
          "type": "address"
        },
        {
          "name": "index",
          "type": "uint256"
        }
      ],
      "name": "tokenOfOwnerByIndex",
      "outputs": [
        {
          "name": "",
          "type": "uint256"
        }
      ],
      "payable": false,
      "stateMutability": "view",
      "type": "function"
    },
    {
      "constant": false,
      "inputs": [
        {
          "name": "from",
          "type": "address"
        },
        {
          "name": "to",
          "type": "address"
        },
        {
          "name": "tokenId",
          "type": "uint256"
        }
      ],
      "name": "safeTransferFrom",
      "outputs": [],
      "payable": false,
      "stateMutability": "nonpayable",
      "type": "function"
    },
    {
      "constant": true,
      "inputs": [
        {
          "name": "index",
          "type": "uint256"
        }
      ],
      "name": "tokenByIndex",
      "outputs": [
        {
          "name": "",
          "type": "uint256"
        }
      ],
      "payable": false,
      "stateMutability": "view",
      "type": "function"
    },
    {
      "constant": true,
      "inputs": [
        {
          "name": "tokenId",
          "type": "uint256"
        }
      ],
      "name": "ownerOf",
      "outputs": [
        {
          "name": "",
          "type": "address"
        }
      ],
      "payable": false,
      "stateMutability": "view",
      "type": "function"
    },
    {
      "constant": true,
      "inputs": [
        {
          "name": "owner",
          "type": "address"
        }
      ],
      "name": "balanceOf",
      "outputs": [
        {
          "name": "",
          "type": "uint256"
        }
      ],
      "payable": false,
      "stateMutability": "view",
      "type": "function"
    },
    {
      "constant": true,
      "inputs": [],
      "name": "symbol",
      "outputs": [
        {
          "name": "",
          "type": "string"
        }
      ],
      "payable": false,
      "stateMutability": "view",
      "type": "function"
    },
    {
      "constant": false,
      "inputs": [
        {
          "name": "to",
          "type": "address"
        },
        {
          "name": "approved",
          "type": "bool"
        }
      ],
      "name": "setApprovalForAll",
      "outputs": [],
      "payable": false,
      "stateMutability": "nonpayable",
      "type": "function"
    },
    {
      "constant": false,
      "inputs": [
        {
          "name": "from",
          "type": "address"
        },
        {
          "name": "to",
          "type": "address"
        },
        {
          "name": "tokenId",
          "type": "uint256"
        },
        {
          "name": "_data",
          "type": "bytes"
        }
      ],
      "name": "safeTransferFrom",
      "outputs": [],
      "payable": false,
      "stateMutability": "nonpayable",
      "type": "function"
    },
    {
      "constant": true,
      "inputs": [
        {
          "name": "tokenId",
          "type": "uint256"
        }
      ],
      "name": "tokenURI",
      "outputs": [
        {
          "name": "",
          "type": "string"
        }
      ],
      "payable": false,
      "stateMutability": "view",
      "type": "function"
    },
    {
      "constant": true,
      "inputs": [
        {
          "name": "owner",
          "type": "address"
        },
        {
          "name": "operator",
          "type": "address"
        }
      ],
      "name": "isApprovedForAll",
      "outputs": [
        {
          "name": "",
          "type": "bool"
        }
      ],
      "payable": false,
      "stateMutability": "view",
      "type": "function"
    },
    {
      "inputs": [],
      "payable": false,
      "stateMutability": "nonpayable",
      "type": "constructor"
    },
    {
      "anonymous": false,
      "inputs": [
        {
          "indexed": true,
          "name": "from",
          "type": "address"
        },
        {
          "indexed": true,
          "name": "to",
          "type": "address"
        },
        {
          "indexed": true,
          "name": "tokenId",
          "type": "uint256"
        }
      ],
      "name": "Transfer",
      "type": "event"
    },
    {
      "anonymous": false,
      "inputs": [
        {
          "indexed": true,
          "name": "owner",
          "type": "address"
        },
        {
          "indexed": true,
          "name": "approved",
          "type": "address"
        },
        {
          "indexed": true,
          "name": "tokenId",
          "type": "uint256"
        }
      ],
      "name": "Approval",
      "type": "event"
    },
    {
      "anonymous": false,
      "inputs": [
        {
          "indexed": true,
          "name": "owner",
          "type": "address"
        },
        {
          "indexed": true,
          "name": "operator",
          "type": "address"
        },
        {
          "indexed": false,
          "name": "approved",
          "type": "bool"
        }
      ],
      "name": "ApprovalForAll",
      "type": "event"
    },
    {
      "constant": false,
      "inputs": [
        {
          "name": "_uid",
          "type": "uint256"
        }
      ],
      "name": "mint",
      "outputs": [],
      "payable": false,
      "stateMutability": "nonpayable",
      "type": "function"
    },
    {
      "constant": false,
      "inputs": [
        {
          "name": "_gateway",
          "type": "address"
        },
        {
          "name": "_uid",
          "type": "uint256"
        }
      ],
      "name": "depositToGateway",
      "outputs": [],
      "payable": false,
      "stateMutability": "nonpayable",
      "type": "function"
    }
  ],
  "bytecode": "0x60806040523480156200001157600080fd5b506040518060400160405280600e81526020017f4d7952696e6b656279546f6b656e0000000000000000000000000000000000008152506040518060400160405280600381526020017f4d525400000000000000000000000000000000000000000000000000000000008152508181620000986301ffc9a760e01b6200011660201b60201c565b620000b06380ac58cd60e01b6200011660201b60201c565b620000c863780e9d6360e01b6200011660201b60201c565b8151620000dd906009906020850190620001e5565b508051620000f390600a906020840190620001e5565b506200010c635b5e139f60e01b6200011660201b60201c565b505050506200028a565b7fffffffff000000000000000000000000000000000000000000000000000000008082161415620001a857604080517f08c379a000000000000000000000000000000000000000000000000000000000815260206004820152601c60248201527f4552433136353a20696e76616c696420696e7465726661636520696400000000604482015290519081900360640190fd5b7fffffffff00000000000000000000000000000000000000000000000000000000166000908152602081905260409020805460ff19166001179055565b828054600181600116156101000203166002900490600052602060002090601f016020900481019282601f106200022857805160ff191683800117855562000258565b8280016001018555821562000258579182015b82811115620002585782518255916020019190600101906200023b565b50620002669291506200026a565b5090565b6200028791905b8082111562000266576000815560010162000271565b90565b61171b806200029a6000396000f3fe608060405234801561001057600080fd5b50600436106101165760003560e01c80636352211e116100a2578063a22cb46511610071578063a22cb46514610371578063b88d4fde1461039f578063c87b56dd14610465578063e985e9c514610482578063eb6bf633146104b057610116565b80636352211e1461030957806370a082311461032657806395d89b411461034c578063a0712d681461035457610116565b806318160ddd116100e957806318160ddd1461023a57806323b872dd146102545780632f745c591461028a57806342842e0e146102b65780634f6ccce7146102ec57610116565b806301ffc9a71461011b57806306fdde0314610156578063081812fc146101d3578063095ea7b31461020c575b600080fd5b6101426004803603602081101561013157600080fd5b50356001600160e01b0319166104dc565b604080519115158252519081900360200190f35b61015e6104fb565b6040805160208082528351818301528351919283929083019185019080838360005b83811015610198578181015183820152602001610180565b50505050905090810190601f1680156101c55780820380516001836020036101000a031916815260200191505b509250505060405180910390f35b6101f0600480360360208110156101e957600080fd5b5035610592565b604080516001600160a01b039092168252519081900360200190f35b6102386004803603604081101561022257600080fd5b506001600160a01b0381351690602001356105f7565b005b610242610725565b60408051918252519081900360200190f35b6102386004803603606081101561026a57600080fd5b506001600160a01b0381358116916020810135909116906040013561072b565b610242600480360360408110156102a057600080fd5b506001600160a01b03813516906020013561078a565b610238600480360360608110156102cc57600080fd5b506001600160a01b0381358116916020810135909116906040013561080c565b6102426004803603602081101561030257600080fd5b5035610827565b6101f06004803603602081101561031f57600080fd5b5035610890565b6102426004803603602081101561033c57600080fd5b50356001600160a01b03166108ed565b61015e610958565b6102386004803603602081101561036a57600080fd5b50356109b9565b6102386004803603604081101561038757600080fd5b506001600160a01b03813516906020013515156109c6565b610238600480360360808110156103b557600080fd5b6001600160a01b038235811692602081013590911691604082013591908101906080810160608201356401000000008111156103f057600080fd5b82018360208201111561040257600080fd5b8035906020019184600183028401116401000000008311171561042457600080fd5b91908080601f016020809104026020016040519081016040528093929190818152602001838380828437600092019190915250929550610ace945050505050565b61015e6004803603602081101561047b57600080fd5b5035610b2f565b6101426004803603604081101561049857600080fd5b506001600160a01b0381358116916020013516610c17565b610238600480360360408110156104c657600080fd5b506001600160a01b038135169060200135610c45565b6001600160e01b03191660009081526020819052604090205460ff1690565b60098054604080516020601f60026000196101006001881615020190951694909404938401819004810282018101909252828152606093909290918301828280156105875780601f1061055c57610100808354040283529160200191610587565b820191906000526020600020905b81548152906001019060200180831161056a57829003601f168201915b505050505090505b90565b600061059d82610c54565b6105db57604051600160e51b62461bcd02815260040180806020018281038252602c8152602001806115ee602c913960400191505060405180910390fd5b506000908152600260205260409020546001600160a01b031690565b600061060282610890565b9050806001600160a01b0316836001600160a01b0316141561065857604051600160e51b62461bcd0281526004018080602001828103825260218152602001806116726021913960400191505060405180910390fd5b806001600160a01b031661066a610c71565b6001600160a01b0316148061068b575061068b81610686610c71565b610c17565b6106c957604051600160e51b62461bcd0281526004018080602001828103825260388152602001806115636038913960400191505060405180910390fd5b60008281526002602052604080822080546001600160a01b0319166001600160a01b0387811691821790925591518593918516917f8c5be1e5ebec7d5bd14f71427d1e84f3dd0314c0f7b2291e5b200ac8c7c3b92591a4505050565b60075490565b61073c610736610c71565b82610c75565b61077a57604051600160e51b62461bcd0281526004018080602001828103825260318152602001806116936031913960400191505060405180910390fd5b610785838383610d1c565b505050565b6000610795836108ed565b82106107d557604051600160e51b62461bcd02815260040180806020018281038252602b8152602001806114b6602b913960400191505060405180910390fd5b6001600160a01b03831660009081526005602052604090208054839081106107f957fe5b9060005260206000200154905092915050565b61078583838360405180602001604052806000815250610ace565b6000610831610725565b821061087157604051600160e51b62461bcd02815260040180806020018281038252602c8152602001806116c4602c913960400191505060405180910390fd5b6007828154811061087e57fe5b90600052602060002001549050919050565b6000818152600160205260408120546001600160a01b0316806108e757604051600160e51b62461bcd0281526004018080602001828103825260298152602001806115c56029913960400191505060405180910390fd5b92915050565b60006001600160a01b03821661093757604051600160e51b62461bcd02815260040180806020018281038252602a81526020018061159b602a913960400191505060405180910390fd5b6001600160a01b03821660009081526003602052604090206108e790610d3b565b600a8054604080516020601f60026000196101006001881615020190951694909404938401819004810282018101909252828152606093909290918301828280156105875780601f1061055c57610100808354040283529160200191610587565b6109c33382610d3f565b50565b6109ce610c71565b6001600160a01b0316826001600160a01b03161415610a375760408051600160e51b62461bcd02815260206004820152601960248201527f4552433732313a20617070726f766520746f2063616c6c657200000000000000604482015290519081900360640190fd5b8060046000610a44610c71565b6001600160a01b03908116825260208083019390935260409182016000908120918716808252919093529120805460ff191692151592909217909155610a88610c71565b60408051841515815290516001600160a01b0392909216917f17307eab39ab6107e8899845ad3d59bd9653f200f220920489ca2b5937696c319181900360200190a35050565b610adf610ad9610c71565b83610c75565b610b1d57604051600160e51b62461bcd0281526004018080602001828103825260318152602001806116936031913960400191505060405180910390fd5b610b2984848484610d5c565b50505050565b6060610b3a82610c54565b610b7857604051600160e51b62461bcd02815260040180806020018281038252602f815260200180611643602f913960400191505060405180910390fd5b6000828152600b602090815260409182902080548351601f600260001961010060018616150201909316929092049182018490048402810184019094528084529091830182828015610c0b5780601f10610be057610100808354040283529160200191610c0b565b820191906000526020600020905b815481529060010190602001808311610bee57829003601f168201915b50505050509050919050565b6001600160a01b03918216600090815260046020908152604080832093909416825291909152205460ff1690565b610c5033838361080c565b5050565b6000908152600160205260409020546001600160a01b0316151590565b3390565b6000610c8082610c54565b610cbe57604051600160e51b62461bcd02815260040180806020018281038252602c815260200180611537602c913960400191505060405180910390fd5b6000610cc983610890565b9050806001600160a01b0316846001600160a01b03161480610d045750836001600160a01b0316610cf984610592565b6001600160a01b0316145b80610d145750610d148185610c17565b949350505050565b610d27838383610db1565b610d318382610efb565b6107858282610ff0565b5490565b610d49828261102e565b610d538282610ff0565b610c5081611165565b610d67848484610d1c565b610d73848484846111a9565b610b2957604051600160e51b62461bcd0281526004018080602001828103825260328152602001806114e16032913960400191505060405180910390fd5b826001600160a01b0316610dc482610890565b6001600160a01b031614610e0c57604051600160e51b62461bcd02815260040180806020018281038252602981526020018061161a6029913960400191505060405180910390fd5b6001600160a01b038216610e5457604051600160e51b62461bcd0281526004018080602001828103825260248152602001806115136024913960400191505060405180910390fd5b610e5d81611303565b6001600160a01b0383166000908152600360205260409020610e7e9061133e565b6001600160a01b0382166000908152600360205260409020610e9f90611355565b60008181526001602052604080822080546001600160a01b0319166001600160a01b0386811691821790925591518493918716917fddf252ad1be2c89b69c2b068fc378daa952ba7f163c4a11628f55a4df523b3ef91a4505050565b6001600160a01b038216600090815260056020526040812054610f2590600163ffffffff61135e16565b600083815260066020526040902054909150808214610fc0576001600160a01b0384166000908152600560205260408120805484908110610f6257fe5b906000526020600020015490508060056000876001600160a01b03166001600160a01b031681526020019081526020016000208381548110610fa057fe5b600091825260208083209091019290925591825260069052604090208190555b6001600160a01b0384166000908152600560205260409020805490610fe9906000198301611478565b5050505050565b6001600160a01b0390911660009081526005602081815260408084208054868652600684529185208290559282526001810183559183529091200155565b6001600160a01b03821661108c5760408051600160e51b62461bcd02815260206004820181905260248201527f4552433732313a206d696e7420746f20746865207a65726f2061646472657373604482015290519081900360640190fd5b61109581610c54565b156110ea5760408051600160e51b62461bcd02815260206004820152601c60248201527f4552433732313a20746f6b656e20616c7265616479206d696e74656400000000604482015290519081900360640190fd5b600081815260016020908152604080832080546001600160a01b0319166001600160a01b03871690811790915583526003909152902061112990611355565b60405181906001600160a01b038416906000907fddf252ad1be2c89b69c2b068fc378daa952ba7f163c4a11628f55a4df523b3ef908290a45050565b600780546000838152600860205260408120829055600182018355919091527fa66cc928b5edb82af9bd49922954155ab7b0942694bea4ce44661d9a8736c6880155565b60006111bd846001600160a01b03166113a7565b6111c957506001610d14565b6000846001600160a01b031663150b7a026111e2610c71565b8887876040518563ffffffff1660e01b815260040180856001600160a01b03166001600160a01b03168152602001846001600160a01b03166001600160a01b0316815260200183815260200180602001828103825283818151815260200191508051906020019080838360005b8381101561126757818101518382015260200161124f565b50505050905090810190601f1680156112945780820380516001836020036101000a031916815260200191505b5095505050505050602060405180830381600087803b1580156112b657600080fd5b505af11580156112ca573d6000803e3d6000fd5b505050506040513d60208110156112e057600080fd5b50516001600160e01b031916600160e11b630a85bd010214915050949350505050565b6000818152600260205260409020546001600160a01b0316156109c357600090815260026020526040902080546001600160a01b0319169055565b805461135190600163ffffffff61135e16565b9055565b80546001019055565b60006113a083836040518060400160405280601e81526020017f536166654d6174683a207375627472616374696f6e206f766572666c6f7700008152506113de565b9392505050565b6000813f7fc5d2460186f7233c927e7db2dcc703c0e500b653ca82273b7bfad8045d85a4708115801590610d145750141592915050565b6000818484111561147057604051600160e51b62461bcd0281526004018080602001828103825283818151815260200191508051906020019080838360005b8381101561143557818101518382015260200161141d565b50505050905090810190601f1680156114625780820380516001836020036101000a031916815260200191505b509250505060405180910390fd5b505050900390565b8154818355818111156107855760008381526020902061078591810190830161058f91905b808211156114b1576000815560010161149d565b509056fe455243373231456e756d657261626c653a206f776e657220696e646578206f7574206f6620626f756e64734552433732313a207472616e7366657220746f206e6f6e20455243373231526563656976657220696d706c656d656e7465724552433732313a207472616e7366657220746f20746865207a65726f20616464726573734552433732313a206f70657261746f7220717565727920666f72206e6f6e6578697374656e7420746f6b656e4552433732313a20617070726f76652063616c6c6572206973206e6f74206f776e6572206e6f7220617070726f76656420666f7220616c6c4552433732313a2062616c616e636520717565727920666f7220746865207a65726f20616464726573734552433732313a206f776e657220717565727920666f72206e6f6e6578697374656e7420746f6b656e4552433732313a20617070726f76656420717565727920666f72206e6f6e6578697374656e7420746f6b656e4552433732313a207472616e73666572206f6620746f6b656e2074686174206973206e6f74206f776e4552433732314d657461646174613a2055524920717565727920666f72206e6f6e6578697374656e7420746f6b656e4552433732313a20617070726f76616c20746f2063757272656e74206f776e65724552433732313a207472616e736665722063616c6c6572206973206e6f74206f776e6572206e6f7220617070726f766564455243373231456e756d657261626c653a20676c6f62616c20696e646578206f7574206f6620626f756e6473a165627a7a72305820b55a3065eac969e20b7968de9a67c705589ecb8655b9bf25364e10e7ccd47f6a0029",
  "source": "pragma solidity ^0.5.0;\n\nimport \"@openzeppelin/contracts/token/ERC721/ERC721Full.sol\";\n\ncontract MyRinkebyToken is ERC721Full {\n    constructor() ERC721Full(\"MyRinkebyToken\", \"MRT\") public {\n    }\n\n    function mint(uint256 _uid) public\n    {\n        _mint(msg.sender, _uid);\n    }\n\n    // Convenience function to get around crappy function overload limitations in Web3\n    function depositToGateway(address _gateway, uint256 _uid) public {\n        safeTransferFrom(msg.sender, _gateway, _uid);\n    }\n}\n",
  "sourcePath": "/home/vitalpointai/projects/ChallengeCoin/src/contracts/MyRinkebyToken.sol",
  "compiler": {
    "name": "solc",
    "version": "0.5.7+commit.6da8b019.Emscripten.clang"
  },
  "schemaVersion": "3.0.19",
  "updatedAt": "2019-12-15T21:47:01.673Z",
  "networkType": "ethereum",
  "devdoc": {
    "methods": {
      "approve(address,uint256)": {
        "details": "Approves another address to transfer the given token ID The zero address indicates there is no approved address. There can only be one approved address per token at a given time. Can only be called by the token owner or an approved operator.",
        "params": {
          "to": "address to be approved for the given token ID",
          "tokenId": "uint256 ID of the token to be approved"
        }
      },
      "balanceOf(address)": {
        "details": "Gets the balance of the specified address.",
        "params": {
          "owner": "address to query the balance of"
        },
        "return": "uint256 representing the amount owned by the passed address"
      },
      "getApproved(uint256)": {
        "details": "Gets the approved address for a token ID, or zero if no address set Reverts if the token ID does not exist.",
        "params": {
          "tokenId": "uint256 ID of the token to query the approval of"
        },
        "return": "address currently approved for the given token ID"
      },
      "isApprovedForAll(address,address)": {
        "details": "Tells whether an operator is approved by a given owner.",
        "params": {
          "operator": "operator address which you want to query the approval of",
          "owner": "owner address which you want to query the approval of"
        },
        "return": "bool whether the given operator is approved by the given owner"
      },
      "name()": {
        "details": "Gets the token name.",
        "return": "string representing the token name"
      },
      "ownerOf(uint256)": {
        "details": "Gets the owner of the specified token ID.",
        "params": {
          "tokenId": "uint256 ID of the token to query the owner of"
        },
        "return": "address currently marked as the owner of the given token ID"
      },
      "safeTransferFrom(address,address,uint256)": {
        "details": "Safely transfers the ownership of a given token ID to another address If the target address is a contract, it must implement {IERC721Receiver-onERC721Received}, which is called upon a safe transfer, and return the magic value `bytes4(keccak256(\"onERC721Received(address,address,uint256,bytes)\"))`; otherwise, the transfer is reverted. Requires the msg.sender to be the owner, approved, or operator",
        "params": {
          "from": "current owner of the token",
          "to": "address to receive the ownership of the given token ID",
          "tokenId": "uint256 ID of the token to be transferred"
        }
      },
      "safeTransferFrom(address,address,uint256,bytes)": {
        "details": "Safely transfers the ownership of a given token ID to another address If the target address is a contract, it must implement {IERC721Receiver-onERC721Received}, which is called upon a safe transfer, and return the magic value `bytes4(keccak256(\"onERC721Received(address,address,uint256,bytes)\"))`; otherwise, the transfer is reverted. Requires the _msgSender() to be the owner, approved, or operator",
        "params": {
          "_data": "bytes data to send along with a safe transfer check",
          "from": "current owner of the token",
          "to": "address to receive the ownership of the given token ID",
          "tokenId": "uint256 ID of the token to be transferred"
        }
      },
      "setApprovalForAll(address,bool)": {
        "details": "Sets or unsets the approval of a given operator An operator is allowed to transfer all tokens of the sender on their behalf.",
        "params": {
          "approved": "representing the status of the approval to be set",
          "to": "operator address to set the approval"
        }
      },
      "supportsInterface(bytes4)": {
        "details": "See {IERC165-supportsInterface}.     * Time complexity O(1), guaranteed to always use less than 30 000 gas."
      },
      "symbol()": {
        "details": "Gets the token symbol.",
        "return": "string representing the token symbol"
      },
      "tokenByIndex(uint256)": {
        "details": "Gets the token ID at a given index of all the tokens in this contract Reverts if the index is greater or equal to the total number of tokens.",
        "params": {
          "index": "uint256 representing the index to be accessed of the tokens list"
        },
        "return": "uint256 token ID at the given index of the tokens list"
      },
      "tokenOfOwnerByIndex(address,uint256)": {
        "details": "Gets the token ID at a given index of the tokens list of the requested owner.",
        "params": {
          "index": "uint256 representing the index to be accessed of the requested tokens list",
          "owner": "address owning the tokens list to be accessed"
        },
        "return": "uint256 token ID at the given index of the tokens list owned by the requested address"
      },
      "tokenURI(uint256)": {
        "details": "Returns an URI for a given token ID. Throws if the token ID does not exist. May return an empty string.",
        "params": {
          "tokenId": "uint256 ID of the token to query"
        }
      },
      "totalSupply()": {
        "details": "Gets the total amount of tokens stored by the contract.",
        "return": "uint256 representing the total amount of tokens"
      },
      "transferFrom(address,address,uint256)": {
        "details": "Transfers the ownership of a given token ID to another address. Usage of this method is discouraged, use {safeTransferFrom} whenever possible. Requires the msg.sender to be the owner, approved, or operator.",
        "params": {
          "from": "current owner of the token",
          "to": "address to receive the ownership of the given token ID",
          "tokenId": "uint256 ID of the token to be transferred"
        }
      }
    }
  },
  "userdoc": {
    "methods": {}
  }
}