{
  "contractName": "QualificationCoin",
  "abi": [
    {
      "constant": true,
      "inputs": [
        {
          "name": "interfaceId",
          "type": "bytes4"
        }
      ],
      "name": "supportsInterface",
      "outputs": [
        {
          "name": "",
          "type": "bool"
        }
      ],
      "payable": false,
      "stateMutability": "view",
      "type": "function"
    },
    {
      "constant": true,
      "inputs": [],
      "name": "name",
      "outputs": [
        {
          "name": "",
          "type": "string"
        }
      ],
      "payable": false,
      "stateMutability": "view",
      "type": "function"
    },
    {
      "constant": true,
      "inputs": [
        {
          "name": "tokenId",
          "type": "uint256"
        }
      ],
      "name": "getApproved",
      "outputs": [
        {
          "name": "",
          "type": "address"
        }
      ],
      "payable": false,
      "stateMutability": "view",
      "type": "function"
    },
    {
      "constant": false,
      "inputs": [
        {
          "name": "to",
          "type": "address"
        },
        {
          "name": "tokenId",
          "type": "uint256"
        }
      ],
      "name": "approve",
      "outputs": [],
      "payable": false,
      "stateMutability": "nonpayable",
      "type": "function"
    },
    {
      "constant": true,
      "inputs": [],
      "name": "gateway",
      "outputs": [
        {
          "name": "",
          "type": "address"
        }
      ],
      "payable": false,
      "stateMutability": "view",
      "type": "function"
    },
    {
      "constant": true,
      "inputs": [],
      "name": "totalSupply",
      "outputs": [
        {
          "name": "",
          "type": "uint256"
        }
      ],
      "payable": false,
      "stateMutability": "view",
      "type": "function"
    },
    {
      "constant": false,
      "inputs": [
        {
          "name": "from",
          "type": "address"
        },
        {
          "name": "to",
          "type": "address"
        },
        {
          "name": "tokenId",
          "type": "uint256"
        }
      ],
      "name": "transferFrom",
      "outputs": [],
      "payable": false,
      "stateMutability": "nonpayable",
      "type": "function"
    },
    {
      "constant": true,
      "inputs": [
        {
          "name": "owner",
          "type": "address"
        },
        {
          "name": "index",
          "type": "uint256"
        }
      ],
      "name": "tokenOfOwnerByIndex",
      "outputs": [
        {
          "name": "",
          "type": "uint256"
        }
      ],
      "payable": false,
      "stateMutability": "view",
      "type": "function"
    },
    {
      "constant": false,
      "inputs": [
        {
          "name": "from",
          "type": "address"
        },
        {
          "name": "to",
          "type": "address"
        },
        {
          "name": "tokenId",
          "type": "uint256"
        }
      ],
      "name": "safeTransferFrom",
      "outputs": [],
      "payable": false,
      "stateMutability": "nonpayable",
      "type": "function"
    },
    {
      "constant": true,
      "inputs": [
        {
          "name": "index",
          "type": "uint256"
        }
      ],
      "name": "tokenByIndex",
      "outputs": [
        {
          "name": "",
          "type": "uint256"
        }
      ],
      "payable": false,
      "stateMutability": "view",
      "type": "function"
    },
    {
      "constant": true,
      "inputs": [
        {
          "name": "tokenId",
          "type": "uint256"
        }
      ],
      "name": "ownerOf",
      "outputs": [
        {
          "name": "",
          "type": "address"
        }
      ],
      "payable": false,
      "stateMutability": "view",
      "type": "function"
    },
    {
      "constant": true,
      "inputs": [
        {
          "name": "owner",
          "type": "address"
        }
      ],
      "name": "balanceOf",
      "outputs": [
        {
          "name": "",
          "type": "uint256"
        }
      ],
      "payable": false,
      "stateMutability": "view",
      "type": "function"
    },
    {
      "constant": false,
      "inputs": [],
      "name": "renounceOwnership",
      "outputs": [],
      "payable": false,
      "stateMutability": "nonpayable",
      "type": "function"
    },
    {
      "constant": true,
      "inputs": [],
      "name": "owner",
      "outputs": [
        {
          "name": "",
          "type": "address"
        }
      ],
      "payable": false,
      "stateMutability": "view",
      "type": "function"
    },
    {
      "constant": true,
      "inputs": [],
      "name": "isOwner",
      "outputs": [
        {
          "name": "",
          "type": "bool"
        }
      ],
      "payable": false,
      "stateMutability": "view",
      "type": "function"
    },
    {
      "constant": true,
      "inputs": [],
      "name": "symbol",
      "outputs": [
        {
          "name": "",
          "type": "string"
        }
      ],
      "payable": false,
      "stateMutability": "view",
      "type": "function"
    },
    {
      "constant": false,
      "inputs": [
        {
          "name": "to",
          "type": "address"
        },
        {
          "name": "approved",
          "type": "bool"
        }
      ],
      "name": "setApprovalForAll",
      "outputs": [],
      "payable": false,
      "stateMutability": "nonpayable",
      "type": "function"
    },
    {
      "constant": false,
      "inputs": [
        {
          "name": "from",
          "type": "address"
        },
        {
          "name": "to",
          "type": "address"
        },
        {
          "name": "tokenId",
          "type": "uint256"
        },
        {
          "name": "_data",
          "type": "bytes"
        }
      ],
      "name": "safeTransferFrom",
      "outputs": [],
      "payable": false,
      "stateMutability": "nonpayable",
      "type": "function"
    },
    {
      "constant": true,
      "inputs": [
        {
          "name": "owner",
          "type": "address"
        },
        {
          "name": "operator",
          "type": "address"
        }
      ],
      "name": "isApprovedForAll",
      "outputs": [
        {
          "name": "",
          "type": "bool"
        }
      ],
      "payable": false,
      "stateMutability": "view",
      "type": "function"
    },
    {
      "constant": false,
      "inputs": [
        {
          "name": "newOwner",
          "type": "address"
        }
      ],
      "name": "transferOwnership",
      "outputs": [],
      "payable": false,
      "stateMutability": "nonpayable",
      "type": "function"
    },
    {
      "inputs": [
        {
          "name": "_gateway",
          "type": "address"
        },
        {
          "name": "_name",
          "type": "string"
        },
        {
          "name": "_symbol",
          "type": "string"
        },
        {
          "name": "_metadata",
          "type": "address"
        }
      ],
      "payable": false,
      "stateMutability": "nonpayable",
      "type": "constructor"
    },
    {
      "anonymous": false,
      "inputs": [
        {
          "indexed": true,
          "name": "previousOwner",
          "type": "address"
        },
        {
          "indexed": true,
          "name": "newOwner",
          "type": "address"
        }
      ],
      "name": "OwnershipTransferred",
      "type": "event"
    },
    {
      "anonymous": false,
      "inputs": [
        {
          "indexed": true,
          "name": "from",
          "type": "address"
        },
        {
          "indexed": true,
          "name": "to",
          "type": "address"
        },
        {
          "indexed": true,
          "name": "tokenId",
          "type": "uint256"
        }
      ],
      "name": "Transfer",
      "type": "event"
    },
    {
      "anonymous": false,
      "inputs": [
        {
          "indexed": true,
          "name": "owner",
          "type": "address"
        },
        {
          "indexed": true,
          "name": "approved",
          "type": "address"
        },
        {
          "indexed": true,
          "name": "tokenId",
          "type": "uint256"
        }
      ],
      "name": "Approval",
      "type": "event"
    },
    {
      "anonymous": false,
      "inputs": [
        {
          "indexed": true,
          "name": "owner",
          "type": "address"
        },
        {
          "indexed": true,
          "name": "operator",
          "type": "address"
        },
        {
          "indexed": false,
          "name": "approved",
          "type": "bool"
        }
      ],
      "name": "ApprovalForAll",
      "type": "event"
    },
    {
      "constant": false,
      "inputs": [
        {
          "name": "_uid",
          "type": "uint256"
        }
      ],
      "name": "mintToGateway",
      "outputs": [],
      "payable": false,
      "stateMutability": "nonpayable",
      "type": "function"
    },
    {
      "constant": false,
      "inputs": [
        {
          "name": "_recipient",
          "type": "address"
        }
      ],
      "name": "mint",
      "outputs": [],
      "payable": false,
      "stateMutability": "nonpayable",
      "type": "function"
    },
    {
      "constant": false,
      "inputs": [
        {
          "name": "_metadata",
          "type": "address"
        }
      ],
      "name": "updateMetadata",
      "outputs": [],
      "payable": false,
      "stateMutability": "nonpayable",
      "type": "function"
    },
    {
      "constant": true,
      "inputs": [
        {
          "name": "_tokenId",
          "type": "uint256"
        }
      ],
      "name": "tokenURI",
      "outputs": [
        {
          "name": "_infoUrl",
          "type": "string"
        }
      ],
      "payable": false,
      "stateMutability": "view",
      "type": "function"
    }
  ],
  "bytecode": "0x60806040523480156200001157600080fd5b5060405162001e8238038062001e82833981018060405260808110156200003757600080fd5b8151602083018051919392830192916401000000008111156200005957600080fd5b820160208101848111156200006d57600080fd5b81516401000000008111828201871017156200008857600080fd5b50509291906020018051640100000000811115620000a557600080fd5b82016020810184811115620000b957600080fd5b8151640100000000811182820187101715620000d457600080fd5b5050602091820151909350915083908390829082906200011a907f01ffc9a7000000000000000000000000000000000000000000000000000000009062000224811b901c565b620001326380ac58cd60e01b6200022460201b60201c565b6200014a63780e9d6360e01b6200022460201b60201c565b81516200015f906009906020850190620002f8565b5080516200017590600a906020840190620002f8565b506200018e635b5e139f60e01b6200022460201b60201c565b50505050620001a2620002f360201b60201c565b600c80546001600160a01b0319166001600160a01b0392831617908190556040519116906000907f8be0079c531659141344cd1fd0a4f28419497f9722a3daafe3b4186f6b6457e0908290a3600d80546001600160a01b039586166001600160a01b031991821617909155600e805492909516911617909255506200039a9050565b7fffffffff000000000000000000000000000000000000000000000000000000008082161415620002b657604080517f08c379a000000000000000000000000000000000000000000000000000000000815260206004820152601c60248201527f4552433136353a20696e76616c696420696e7465726661636520696400000000604482015290519081900360640190fd5b7fffffffff00000000000000000000000000000000000000000000000000000000166000908152602081905260409020805460ff19166001179055565b335b90565b828054600181600116156101000203166002900490600052602060002090601f016020900481019282601f106200033b57805160ff19168380011785556200036b565b828001600101855582156200036b579182015b828111156200036b5782518255916020019190600101906200034e565b50620003799291506200037d565b5090565b620002f591905b8082111562000379576000815560010162000384565b611ad880620003aa6000396000f3fe608060405234801561001057600080fd5b50600436106101585760003560e01c80636a627842116100c3578063a22cb4651161007c578063a22cb465146103f9578063b88d4fde14610427578063c5e2a7db146104ed578063c87b56dd14610513578063e985e9c514610530578063f2fde38b1461055e57610158565b80636a6278421461038d57806370a08231146103b3578063715018a6146103d95780638da5cb5b146103e15780638f32d59b146103e957806395d89b41146103f157610158565b806323b872dd1161011557806323b872dd1461029e5780632f745c59146102d457806342842e0e146103005780634f6ccce714610336578063544297f5146103535780636352211e1461037057610158565b806301ffc9a71461015d57806306fdde0314610198578063081812fc14610215578063095ea7b31461024e578063116191b61461027c57806318160ddd14610284575b600080fd5b6101846004803603602081101561017357600080fd5b50356001600160e01b031916610584565b604080519115158252519081900360200190f35b6101a06105a3565b6040805160208082528351818301528351919283929083019185019080838360005b838110156101da5781810151838201526020016101c2565b50505050905090810190601f1680156102075780820380516001836020036101000a031916815260200191505b509250505060405180910390f35b6102326004803603602081101561022b57600080fd5b503561063a565b604080516001600160a01b039092168252519081900360200190f35b61027a6004803603604081101561026457600080fd5b506001600160a01b03813516906020013561069f565b005b6102326107cd565b61028c6107dc565b60408051918252519081900360200190f35b61027a600480360360608110156102b457600080fd5b506001600160a01b038135811691602081013590911690604001356107e2565b61028c600480360360408110156102ea57600080fd5b506001600160a01b038135169060200135610841565b61027a6004803603606081101561031657600080fd5b506001600160a01b038135811691602081013590911690604001356108c3565b61028c6004803603602081101561034c57600080fd5b50356108de565b61027a6004803603602081101561036957600080fd5b5035610947565b6102326004803603602081101561038657600080fd5b50356109ac565b61027a600480360360208110156103a357600080fd5b50356001600160a01b0316610a09565b61028c600480360360208110156103c957600080fd5b50356001600160a01b0316610a67565b61027a610ad2565b610232610b66565b610184610b75565b6101a0610b9b565b61027a6004803603604081101561040f57600080fd5b506001600160a01b0381351690602001351515610bfc565b61027a6004803603608081101561043d57600080fd5b6001600160a01b0382358116926020810135909116916040820135919081019060808101606082013564010000000081111561047857600080fd5b82018360208201111561048a57600080fd5b803590602001918460018302840111640100000000831117156104ac57600080fd5b91908080601f016020809104026020016040519081016040528093929190818152602001838380828437600092019190915250929550610d04945050505050565b61027a6004803603602081101561050357600080fd5b50356001600160a01b0316610d65565b6101a06004803603602081101561052957600080fd5b5035610dd1565b6101846004803603604081101561054657600080fd5b506001600160a01b0381358116916020013516610eae565b61027a6004803603602081101561057457600080fd5b50356001600160a01b0316610edc565b6001600160e01b03191660009081526020819052604090205460ff1690565b60098054604080516020601f600260001961010060018816150201909516949094049384018190048102820181019092528281526060939092909183018282801561062f5780601f106106045761010080835404028352916020019161062f565b820191906000526020600020905b81548152906001019060200180831161061257829003601f168201915b505050505090505b90565b600061064582610f2f565b61068357604051600160e51b62461bcd02815260040180806020018281038252602c8152602001806119ba602c913960400191505060405180910390fd5b506000908152600260205260409020546001600160a01b031690565b60006106aa826109ac565b9050806001600160a01b0316836001600160a01b0316141561070057604051600160e51b62461bcd028152600401808060200182810382526021815260200180611a2f6021913960400191505060405180910390fd5b806001600160a01b0316610712610f4c565b6001600160a01b0316148061073357506107338161072e610f4c565b610eae565b61077157604051600160e51b62461bcd02815260040180806020018281038252603881526020018061192f6038913960400191505060405180910390fd5b60008281526002602052604080822080546001600160a01b0319166001600160a01b0387811691821790925591518593918516917f8c5be1e5ebec7d5bd14f71427d1e84f3dd0314c0f7b2291e5b200ac8c7c3b92591a4505050565b600d546001600160a01b031681565b60075490565b6107f36107ed610f4c565b82610f50565b61083157604051600160e51b62461bcd028152600401808060200182810382526031815260200180611a506031913960400191505060405180910390fd5b61083c838383610ff7565b505050565b600061084c83610a67565b821061088c57604051600160e51b62461bcd02815260040180806020018281038252602b81526020018061185c602b913960400191505060405180910390fd5b6001600160a01b03831660009081526005602052604090208054839081106108b057fe5b9060005260206000200154905092915050565b61083c83838360405180602001604052806000815250610d04565b60006108e86107dc565b821061092857604051600160e51b62461bcd02815260040180806020018281038252602c815260200180611a81602c913960400191505060405180910390fd5b6007828154811061093557fe5b90600052602060002001549050919050565b600d546001600160a01b0316331461099357604051600160e51b62461bcd0281526004018080602001828103825260238152602001806118396023913960400191505060405180910390fd5b600d546109a9906001600160a01b031682611016565b50565b6000818152600160205260408120546001600160a01b031680610a0357604051600160e51b62461bcd0281526004018080602001828103825260298152602001806119916029913960400191505060405180910390fd5b92915050565b610a11610b75565b610a535760408051600160e51b62461bcd02815260206004820181905260248201526000805160206119e6833981519152604482015290519081900360640190fd5b6109a981610a5f6107dc565b600101611016565b60006001600160a01b038216610ab157604051600160e51b62461bcd02815260040180806020018281038252602a815260200180611967602a913960400191505060405180910390fd5b6001600160a01b0382166000908152600360205260409020610a0390611037565b610ada610b75565b610b1c5760408051600160e51b62461bcd02815260206004820181905260248201526000805160206119e6833981519152604482015290519081900360640190fd5b600c546040516000916001600160a01b0316907f8be0079c531659141344cd1fd0a4f28419497f9722a3daafe3b4186f6b6457e0908390a3600c80546001600160a01b0319169055565b600c546001600160a01b031690565b600c546000906001600160a01b0316610b8c610f4c565b6001600160a01b031614905090565b600a8054604080516020601f600260001961010060018816150201909516949094049384018190048102820181019092528281526060939092909183018282801561062f5780601f106106045761010080835404028352916020019161062f565b610c04610f4c565b6001600160a01b0316826001600160a01b03161415610c6d5760408051600160e51b62461bcd02815260206004820152601960248201527f4552433732313a20617070726f766520746f2063616c6c657200000000000000604482015290519081900360640190fd5b8060046000610c7a610f4c565b6001600160a01b03908116825260208083019390935260409182016000908120918716808252919093529120805460ff191692151592909217909155610cbe610f4c565b60408051841515815290516001600160a01b0392909216917f17307eab39ab6107e8899845ad3d59bd9653f200f220920489ca2b5937696c319181900360200190a35050565b610d15610d0f610f4c565b83610f50565b610d5357604051600160e51b62461bcd028152600401808060200182810382526031815260200180611a506031913960400191505060405180910390fd5b610d5f8484848461103b565b50505050565b610d6d610b75565b610daf5760408051600160e51b62461bcd02815260206004820181905260248201526000805160206119e6833981519152604482015290519081900360640190fd5b600e80546001600160a01b0319166001600160a01b0392909216919091179055565b600e5460408051600160e01b63c87b56dd0281526004810184905290516060926001600160a01b03169163c87b56dd916024808301926000929190829003018186803b158015610e2057600080fd5b505afa158015610e34573d6000803e3d6000fd5b505050506040513d6000823e601f3d908101601f191682016040526020811015610e5d57600080fd5b810190808051640100000000811115610e7557600080fd5b82016020810184811115610e8857600080fd5b8151640100000000811182820187101715610ea257600080fd5b50909695505050505050565b6001600160a01b03918216600090815260046020908152604080832093909416825291909152205460ff1690565b610ee4610b75565b610f265760408051600160e51b62461bcd02815260206004820181905260248201526000805160206119e6833981519152604482015290519081900360640190fd5b6109a981611090565b6000908152600160205260409020546001600160a01b0316151590565b3390565b6000610f5b82610f2f565b610f9957604051600160e51b62461bcd02815260040180806020018281038252602c815260200180611903602c913960400191505060405180910390fd5b6000610fa4836109ac565b9050806001600160a01b0316846001600160a01b03161480610fdf5750836001600160a01b0316610fd48461063a565b6001600160a01b0316145b80610fef5750610fef8185610eae565b949350505050565b611002838383611134565b61100c838261127e565b61083c8282611373565b61102082826113b1565b61102a8282611373565b611033816114e8565b5050565b5490565b611046848484610ff7565b6110528484848461152c565b610d5f57604051600160e51b62461bcd0281526004018080602001828103825260328152602001806118876032913960400191505060405180910390fd5b6001600160a01b0381166110d857604051600160e51b62461bcd0281526004018080602001828103825260268152602001806118b96026913960400191505060405180910390fd5b600c546040516001600160a01b038084169216907f8be0079c531659141344cd1fd0a4f28419497f9722a3daafe3b4186f6b6457e090600090a3600c80546001600160a01b0319166001600160a01b0392909216919091179055565b826001600160a01b0316611147826109ac565b6001600160a01b03161461118f57604051600160e51b62461bcd028152600401808060200182810382526029815260200180611a066029913960400191505060405180910390fd5b6001600160a01b0382166111d757604051600160e51b62461bcd0281526004018080602001828103825260248152602001806118df6024913960400191505060405180910390fd5b6111e081611686565b6001600160a01b0383166000908152600360205260409020611201906116c1565b6001600160a01b0382166000908152600360205260409020611222906116d8565b60008181526001602052604080822080546001600160a01b0319166001600160a01b0386811691821790925591518493918716917fddf252ad1be2c89b69c2b068fc378daa952ba7f163c4a11628f55a4df523b3ef91a4505050565b6001600160a01b0382166000908152600560205260408120546112a890600163ffffffff6116e116565b600083815260066020526040902054909150808214611343576001600160a01b03841660009081526005602052604081208054849081106112e557fe5b906000526020600020015490508060056000876001600160a01b03166001600160a01b03168152602001908152602001600020838154811061132357fe5b600091825260208083209091019290925591825260069052604090208190555b6001600160a01b038416600090815260056020526040902080549061136c9060001983016117fb565b5050505050565b6001600160a01b0390911660009081526005602081815260408084208054868652600684529185208290559282526001810183559183529091200155565b6001600160a01b03821661140f5760408051600160e51b62461bcd02815260206004820181905260248201527f4552433732313a206d696e7420746f20746865207a65726f2061646472657373604482015290519081900360640190fd5b61141881610f2f565b1561146d5760408051600160e51b62461bcd02815260206004820152601c60248201527f4552433732313a20746f6b656e20616c7265616479206d696e74656400000000604482015290519081900360640190fd5b600081815260016020908152604080832080546001600160a01b0319166001600160a01b0387169081179091558352600390915290206114ac906116d8565b60405181906001600160a01b038416906000907fddf252ad1be2c89b69c2b068fc378daa952ba7f163c4a11628f55a4df523b3ef908290a45050565b600780546000838152600860205260408120829055600182018355919091527fa66cc928b5edb82af9bd49922954155ab7b0942694bea4ce44661d9a8736c6880155565b6000611540846001600160a01b031661172a565b61154c57506001610fef565b6000846001600160a01b031663150b7a02611565610f4c565b8887876040518563ffffffff1660e01b815260040180856001600160a01b03166001600160a01b03168152602001846001600160a01b03166001600160a01b0316815260200183815260200180602001828103825283818151815260200191508051906020019080838360005b838110156115ea5781810151838201526020016115d2565b50505050905090810190601f1680156116175780820380516001836020036101000a031916815260200191505b5095505050505050602060405180830381600087803b15801561163957600080fd5b505af115801561164d573d6000803e3d6000fd5b505050506040513d602081101561166357600080fd5b50516001600160e01b031916600160e11b630a85bd010214915050949350505050565b6000818152600260205260409020546001600160a01b0316156109a957600090815260026020526040902080546001600160a01b0319169055565b80546116d490600163ffffffff6116e116565b9055565b80546001019055565b600061172383836040518060400160405280601e81526020017f536166654d6174683a207375627472616374696f6e206f766572666c6f770000815250611761565b9392505050565b6000813f7fc5d2460186f7233c927e7db2dcc703c0e500b653ca82273b7bfad8045d85a4708115801590610fef5750141592915050565b600081848411156117f357604051600160e51b62461bcd0281526004018080602001828103825283818151815260200191508051906020019080838360005b838110156117b85781810151838201526020016117a0565b50505050905090810190601f1680156117e55780820380516001836020036101000a031916815260200191505b509250505060405180910390fd5b505050900390565b81548183558181111561083c5760008381526020902061083c91810190830161063791905b808211156118345760008155600101611820565b509056fe6f6e6c7920746865206761746577617920697320616c6c6f77656420746f206d696e74455243373231456e756d657261626c653a206f776e657220696e646578206f7574206f6620626f756e64734552433732313a207472616e7366657220746f206e6f6e20455243373231526563656976657220696d706c656d656e7465724f776e61626c653a206e6577206f776e657220697320746865207a65726f20616464726573734552433732313a207472616e7366657220746f20746865207a65726f20616464726573734552433732313a206f70657261746f7220717565727920666f72206e6f6e6578697374656e7420746f6b656e4552433732313a20617070726f76652063616c6c6572206973206e6f74206f776e6572206e6f7220617070726f76656420666f7220616c6c4552433732313a2062616c616e636520717565727920666f7220746865207a65726f20616464726573734552433732313a206f776e657220717565727920666f72206e6f6e6578697374656e7420746f6b656e4552433732313a20617070726f76656420717565727920666f72206e6f6e6578697374656e7420746f6b656e4f776e61626c653a2063616c6c6572206973206e6f7420746865206f776e65724552433732313a207472616e73666572206f6620746f6b656e2074686174206973206e6f74206f776e4552433732313a20617070726f76616c20746f2063757272656e74206f776e65724552433732313a207472616e736665722063616c6c6572206973206e6f74206f776e6572206e6f7220617070726f766564455243373231456e756d657261626c653a20676c6f62616c20696e646578206f7574206f6620626f756e6473a165627a7a7230582092c687e33837e0234f3565b6a1be0cce5a11688ca375f98898fb793e4b6c338d0029",
  "source": "pragma solidity ^0.5.0;\n\nimport \"@openzeppelin/contracts/token/ERC721/ERC721Full.sol\";\nimport \"@openzeppelin/contracts/ownership/Ownable.sol\";\nimport \"./Metadata.sol\";\n\ncontract QualificationCoin is ERC721Full, Ownable {\n    // Transfer Gateway contract address\n    address public gateway;\n    Metadata metadata;\n\n    constructor (address _gateway, string memory _name, string memory _symbol, Metadata _metadata) ERC721Full(_name, _symbol) public {\n        gateway = _gateway;\n        metadata = _metadata;\n\n    }\n\n    // Used by the DAppChain Gateway to mint tokens that have been deposited to the Ethereum Gateway\n    function mintToGateway (uint256 _uid) public\n    {\n        require(msg.sender == gateway, \"only the gateway is allowed to mint\");\n        _mint(gateway, _uid);\n    }\n\n    // Allow owner to mint coins\n    function mint(address _recipient) public onlyOwner {\n        _mint(_recipient, totalSupply() + 1);\n    }\n    // Function to allow owner to update metadata contract address\n    function updateMetadata(Metadata _metadata) public onlyOwner {\n        metadata = _metadata;\n    }\n    // Handle call to metadata contract (upgradeable)\n    function tokenURI(uint _tokenId) external view returns (string memory _infoUrl) {\n        return metadata.tokenURI(_tokenId);\n    }\n\n}\n",
  "sourcePath": "/home/vitalpointai/projects/ChallengeCoin/src/contracts/QualificationCoin.sol",
  "compiler": {
    "name": "solc",
    "version": "0.5.7+commit.6da8b019.Emscripten.clang"
  },
  "schemaVersion": "3.0.19",
  "updatedAt": "2019-12-15T21:57:25.369Z",
  "devdoc": {
    "methods": {
      "approve(address,uint256)": {
        "details": "Approves another address to transfer the given token ID The zero address indicates there is no approved address. There can only be one approved address per token at a given time. Can only be called by the token owner or an approved operator.",
        "params": {
          "to": "address to be approved for the given token ID",
          "tokenId": "uint256 ID of the token to be approved"
        }
      },
      "balanceOf(address)": {
        "details": "Gets the balance of the specified address.",
        "params": {
          "owner": "address to query the balance of"
        },
        "return": "uint256 representing the amount owned by the passed address"
      },
      "getApproved(uint256)": {
        "details": "Gets the approved address for a token ID, or zero if no address set Reverts if the token ID does not exist.",
        "params": {
          "tokenId": "uint256 ID of the token to query the approval of"
        },
        "return": "address currently approved for the given token ID"
      },
      "isApprovedForAll(address,address)": {
        "details": "Tells whether an operator is approved by a given owner.",
        "params": {
          "operator": "operator address which you want to query the approval of",
          "owner": "owner address which you want to query the approval of"
        },
        "return": "bool whether the given operator is approved by the given owner"
      },
      "isOwner()": {
        "details": "Returns true if the caller is the current owner."
      },
      "name()": {
        "details": "Gets the token name.",
        "return": "string representing the token name"
      },
      "owner()": {
        "details": "Returns the address of the current owner."
      },
      "ownerOf(uint256)": {
        "details": "Gets the owner of the specified token ID.",
        "params": {
          "tokenId": "uint256 ID of the token to query the owner of"
        },
        "return": "address currently marked as the owner of the given token ID"
      },
      "renounceOwnership()": {
        "details": "Leaves the contract without owner. It will not be possible to call `onlyOwner` functions anymore. Can only be called by the current owner.     * NOTE: Renouncing ownership will leave the contract without an owner, thereby removing any functionality that is only available to the owner."
      },
      "safeTransferFrom(address,address,uint256)": {
        "details": "Safely transfers the ownership of a given token ID to another address If the target address is a contract, it must implement {IERC721Receiver-onERC721Received}, which is called upon a safe transfer, and return the magic value `bytes4(keccak256(\"onERC721Received(address,address,uint256,bytes)\"))`; otherwise, the transfer is reverted. Requires the msg.sender to be the owner, approved, or operator",
        "params": {
          "from": "current owner of the token",
          "to": "address to receive the ownership of the given token ID",
          "tokenId": "uint256 ID of the token to be transferred"
        }
      },
      "safeTransferFrom(address,address,uint256,bytes)": {
        "details": "Safely transfers the ownership of a given token ID to another address If the target address is a contract, it must implement {IERC721Receiver-onERC721Received}, which is called upon a safe transfer, and return the magic value `bytes4(keccak256(\"onERC721Received(address,address,uint256,bytes)\"))`; otherwise, the transfer is reverted. Requires the _msgSender() to be the owner, approved, or operator",
        "params": {
          "_data": "bytes data to send along with a safe transfer check",
          "from": "current owner of the token",
          "to": "address to receive the ownership of the given token ID",
          "tokenId": "uint256 ID of the token to be transferred"
        }
      },
      "setApprovalForAll(address,bool)": {
        "details": "Sets or unsets the approval of a given operator An operator is allowed to transfer all tokens of the sender on their behalf.",
        "params": {
          "approved": "representing the status of the approval to be set",
          "to": "operator address to set the approval"
        }
      },
      "supportsInterface(bytes4)": {
        "details": "See {IERC165-supportsInterface}.     * Time complexity O(1), guaranteed to always use less than 30 000 gas."
      },
      "symbol()": {
        "details": "Gets the token symbol.",
        "return": "string representing the token symbol"
      },
      "tokenByIndex(uint256)": {
        "details": "Gets the token ID at a given index of all the tokens in this contract Reverts if the index is greater or equal to the total number of tokens.",
        "params": {
          "index": "uint256 representing the index to be accessed of the tokens list"
        },
        "return": "uint256 token ID at the given index of the tokens list"
      },
      "tokenOfOwnerByIndex(address,uint256)": {
        "details": "Gets the token ID at a given index of the tokens list of the requested owner.",
        "params": {
          "index": "uint256 representing the index to be accessed of the requested tokens list",
          "owner": "address owning the tokens list to be accessed"
        },
        "return": "uint256 token ID at the given index of the tokens list owned by the requested address"
      },
      "totalSupply()": {
        "details": "Gets the total amount of tokens stored by the contract.",
        "return": "uint256 representing the total amount of tokens"
      },
      "transferFrom(address,address,uint256)": {
        "details": "Transfers the ownership of a given token ID to another address. Usage of this method is discouraged, use {safeTransferFrom} whenever possible. Requires the msg.sender to be the owner, approved, or operator.",
        "params": {
          "from": "current owner of the token",
          "to": "address to receive the ownership of the given token ID",
          "tokenId": "uint256 ID of the token to be transferred"
        }
      },
      "transferOwnership(address)": {
        "details": "Transfers ownership of the contract to a new account (`newOwner`). Can only be called by the current owner."
      }
    }
  },
  "userdoc": {
    "methods": {}
  }
}