{
  "contractName": "SimpleStore",
  "abi": [
    {
      "anonymous": false,
      "inputs": [
        {
          "indexed": true,
          "name": "_value",
          "type": "uint256"
        },
        {
          "indexed": false,
          "name": "_sender",
          "type": "address"
        }
      ],
      "name": "NewValueSet",
      "type": "event"
    },
    {
      "anonymous": false,
      "inputs": [
        {
          "indexed": true,
          "name": "_value",
          "type": "uint256"
        },
        {
          "indexed": false,
          "name": "_sender",
          "type": "address"
        }
      ],
      "name": "NewValueSetAgain",
      "type": "event"
    },
    {
      "constant": false,
      "inputs": [
        {
          "name": "_value",
          "type": "uint256"
        }
      ],
      "name": "set",
      "outputs": [],
      "payable": false,
      "stateMutability": "nonpayable",
      "type": "function"
    },
    {
      "constant": false,
      "inputs": [
        {
          "name": "_value",
          "type": "uint256"
        }
      ],
      "name": "setAgain",
      "outputs": [],
      "payable": false,
      "stateMutability": "nonpayable",
      "type": "function"
    },
    {
      "constant": true,
      "inputs": [],
      "name": "get",
      "outputs": [
        {
          "name": "",
          "type": "uint256"
        },
        {
          "name": "",
          "type": "address"
        }
      ],
      "payable": false,
      "stateMutability": "view",
      "type": "function"
    }
  ],
  "bytecode": "0x608060405234801561001057600080fd5b5061015b806100206000396000f3fe608060405234801561001057600080fd5b50600436106100415760003560e01c806360fe47b1146100465780636d4ce63c14610065578063cf7189211461008e575b600080fd5b6100636004803603602081101561005c57600080fd5b50356100ab565b005b61006d6100e9565b604080519283526001600160a01b0390911660208301528051918290030190f35b610063600480360360208110156100a457600080fd5b50356100f1565b600081905560408051338152905182917f7e0b7a35f017ec94e71d7012fe8fa8011f1dab6090674f92de08f8092ab30dda919081900360200190a250565b600054339091565b600081905560408051338152905182917fbd0b1e25f4b9c4b15621999967b6f720a9d31b208d1b70ec690fb4f46d445c82919081900360200190a25056fea165627a7a72305820cc3e59553cd625c16ea2c653477d01bc8f8dbcabe4b91dd7dd90494a393b3ea00029",
  "source": "pragma solidity ^0.5.0;\n\ncontract SimpleStore {\n  uint256 value;\n\n  event NewValueSet(uint256 indexed _value, address _sender);\n  event NewValueSetAgain(uint256 indexed _value, address _sender);\n\n  function set(uint256 _value) public {\n    value = _value;\n    emit NewValueSet(value, msg.sender);\n  }\n\n  function setAgain(uint256 _value) public {\n    value = _value;\n    emit NewValueSetAgain(value, msg.sender);\n  }\n\n  function get() public view returns (uint256, address) {\n    return (value, msg.sender);\n  }\n}\n",
  "sourcePath": "/home/vitalpointai/projects/ChallengeCoin/src/contracts/SimpleStore.sol",
  "compiler": {
    "name": "solc",
    "version": "0.5.7+commit.6da8b019.Emscripten.clang"
  },
  "schemaVersion": "3.0.19",
  "updatedAt": "2019-12-15T21:17:41.491Z",
  "networkType": "ethereum",
  "devdoc": {
    "methods": {}
  },
  "userdoc": {
    "methods": {}
  }
}